:020000040800F2
:10000000C0110024210A0008F10600080D0A0008AA
:100010000D0A00080D0A00080D0A00080000000083
:10002000000000000000000000000000250B000898
:100030000D0A000800000000F10A0008891A0008F3
:10004000950C0008950C0008950C0008950C00080C
:10005000950C0008950C0008950C0008950C0008FC
:10006000950C0008950C0008950C0008950C0008EC
:10007000950C0008950C0008950C0008950C0008DC
:1002CC0053B94AB9002908BF00281CBF4FF0FF31B1
:1002DC004FF0FF3000F00CB8ADF1080C6DE904CE16
:1002EC0000F008F8DDF804E0DDE9022304B0704703
:1002FC00704700BF2DE9F04786468C460846089E9D
:10030C00154674461946002B40F0C2808542B2FA5D
:10031C0082F245D94AB1C2F1200300FA02FC2EFA4E
:10032C0003F3954043EA0C0C94404FEA154EA8B2E7
:10033C00BCFBFEF8230C0EFB18CC08FB00F943EABF
:10034C000C43994528D9EB1808F1FF3704D299458D
:10035C0002D9A8F102072B44A3EB0903A4B2B3FB07
:10036C00FEFC0EFB1C330CFB00F044EA0344A042E1
:10037C0014D92C190CF1FF3304D2A04202D9ACF1E0
:10038C0002032C44241A43EA07401EB1D440002334
:10039C0034607360BDE8F0874746DDE76346F1E7FC
:1003AC0092BB431B01214FEA154EAFB2B3FBFEFCCF
:1003BC00200C0EFB1C330CFB07F840EA034398455A
:1003CC0062D9EB180CF1FF3004D2984502D9ACF18C
:1003DC0002002B44A3EB0803A4B2B3FBFEFC0EFB00
:1003EC001C330CFB07F744EA0344A7424ED92C19E3
:1003FC000CF1FF3304D2A74202D9ACF102032C4416
:10040C00E41B43EA0040C0E7C2F1200320FA03F1E9
:10041C00954090402EFA03F303434FEA154EAFB2CA
:10042C00B1FBFEFC0EFB1C10190C0CFB07F841EA8F
:10043C000041884504FA02F422D969180CF1FF3006
:10044C0004D2884502D9ACF102002944A1EB080181
:10045C009BB2B1FBFEFC0EFB1C110CFB07F743EA35
:10046C0001439F420ED9EB180CF1FF3104D29F428D
:10047C0002D9ACF102012B44DB1B41EA004192E7AB
:10048C006046E3E76146F7E76046A3E76346B7E7F4
:10049C00834206D916B9002108467BE7C6E900E07D
:1004AC00F9E7B3FA83F78FB9834201D3724508D8C1
:1004BC00BEEB020460EB030301209C461EB9002135
:1004CC0068E73846FAE7C6E9004CF8E7C7F1200CB4
:1004DC00BB4022FA0CF41C432EFA0CF120FA0CF35C
:1004EC00B84001434FEA14490EFA07F5B3FBF9F88B
:1004FC001FFA84FE09FB18300B0C08FB0EFA43EABA
:10050C0000439A4502FA07F240D9E31808F1FF308C
:10051C0004D29A4502D9A8F102002344A3EB0A03A2
:10052C0089B2B3FBF9F809FB183308FB0EFE41EA5C
:10053C0003418E452CD9611808F1FF3304D28E4546
:10054C0002D9A8F10203214443EA0040A0FB02981F
:10055C00A1EB0E014145CE46434602D306D14D4593
:10056C0004D2B9EB020E68EB04030138002EA6D0BE
:10057C00B5EB0E0261EB030101FA0CFC22FA07F356
:10058C004CEA0303F940C6E9003198E74046C5E759
:10059C004346D9E7F8B5174D284604F002F804464F
:1005AC0030B32A692846A968136823F00103136045
:1005BC004FF420220B6800219847002818DB0E4FBF
:1005CC000E4EAB68012128465B69984700280FDB6B
:1005DC0084F001040A4814F0FF0414BF3946314674
:1005EC0002F0A4F9002142F2107001F089FFE8E753
:1005FC000020F8BD944B0008DE560008E1560008B8
:10060C00E5560008014B1B68184700BF000000248A
:10061C00014B1860704700BF0000002430B585B056
:10062C0004460D4610220021684604F0CFF902233F
:10063C002A4621468DF802306846034B019302F09E
:10064C0023FA05B030BD00BF1106000880B5054681
:10065C000E461746984601F06FFFDFF820900346D0
:10066C0004F0BCF90446424649F80030394630469D
:10067C00A84754F8090000F0E3F900BF0800000097
:10068C00104B114A1A60114BDA6822F0070242F043
:10069C000202DA609A6942F440429A619A699204C1
:1006AC00FCD50B4B1A6841F20303B3EB124F06D186
:1006BC00084AD2F8083143F00103C2F8083100208F
:1006CC00704700BF380000240090D0030048025847
:1006DC000010005C00800051014B0360012070474A
:1006EC00DC53000808B5034B1B689847BDE808406D
:1006FC0000F026B80400002430BFFFF7FDBF00BF98
:10070C002DE9F0410B4E0546DFF82C80324606EB06
:10071C000807CC1B0949204604F04AF9A019083CEB
:10072C004246002104F052F907F108002C67BDE89D
:10073C00F08100BF0000000004000000FC50000825
:10074C00074A936893F90E10002907DB526993420C
:10075C0004D0044A536843F080535360704700BF81
:10076C009003002400ED00E0264B70B515469A6A04
:10077C00064612F0100F9A6A14BF1124102412F0BE
:10078C00080F9A6A18BF122492070AD5586B9A6AF6
:10079C00140634D519B19A6A22F080029A62132495
:1007AC0001E06FF01500174B9A6A12F0010F9A6A6C
:1007BC0018BF142412F0200F9A6A18BF1524D20601
:1007CC0002D49B6A9B070AD50E4B5B68190506D5AC
:1007DC00314600F00FFA10B180F309880224094B5E
:1007EC009A6A920603D55A6A22F400525A629A6A9D
:1007FC00204642F0FF029A6200232B7070BD6FF00E
:10080C001500CCE700ED00E0134B9A6A12F0007F64
:10081C009A6A14BF1E201D2012F0807F9A6A18BF9E
:10082C001F2012F4002F9A6A18BF212012F4802F77
:10083C009A6A18BF222012F4003F9A6A18BF23202C
:10084C0012F4803F9A6A6FEA024218BF24206FEAC2
:10085C0012429A62704700BF00ED00E0194B02464D
:10086C0010B5986A9C6A10F4805F14BF172016208C
:10087C0014F4006F9C6A18BF1820A40509D5986B56
:10088C00986A000404D51AB19A6A22F400429A625A
:10089C0019200C4B9A6A12F4806F9A6A18BF1A20AE
:1008AC00D2050CD49B6A13F4005F18BF1C20054AB8
:1008BC00936A43F47F43936200230B7010BD1B209B
:1008CC00F5E700BF00ED00E0484BF0B55B688BB07E
:1008DC0004460025C3F3080385F31188BFF36F8F1B
:1008EC0002F07F40B0F17F4F11D102F00C000828CC
:1008FC000DD010074CBF0C4601250022033B8DF890
:10090C000720032B05D8DFE803F0256468612C462B
:10091C00F3E700239DF80720D2B902AE04F12007BB
:10092C002068083454F8041C3246BC4203C21646F4
:10093C00F6D1099A002D54D0C2F3080121B96FEAFF
:10094C0052226FEA4222099202A9184603F0EBFAEE
:10095C000BB0F0BD254BDA6A9107DAD4DA6A002ABB
:10096C00D7DBDA6A5200D4D55A69A16942F4807295
:10097C005A61BFF34F8FBFF36F8F5A6931F8021C66
:10098C0022F480725A61BFF34F8FBFF36F8F4DF615
:10099C00027291420AD09A6AD2B24AB10DF10702A0
:1009AC0001212046FFF7E0FE0346B3E72368B1E7D9
:1009BC009A6A12F47F4F05D00DF107010120FFF761
:1009CC004DFFF1E79B6AB3F5803FA2D3FFF71CFF05
:1009DC00EAE70DF107020021E3E70DF10701002022
:1009EC00EDE722F4FF7222F00102ACE700ED00E02B
:1009FC00024A536943F010035361704700ED00E065
:100A0C00EFF30880EFF3098101B57246FFF75CFF45
:100A1C0001BD00BF102080F3118808484FF4046119
:100A2C00401880F30988EFF314800221084380F307
:100A3C001488BFF36F8F00F0A3F8000000040024AB
:100A4C00084B9B6883420BD1EFF3058343B1064BF4
:100A5C005A6842F080525A605A6A22F400425A6232
:100A6C0003F03EBE9003002400ED00E0094A6FF055
:100A7C000A0193689967084958674B6843F080539B
:100A8C004B60002383F31188BFF36F8F9368986FCB
:100A9C00704700BF9003002400ED00E010B5044641
:100AAC00EFF31183102383F31288BFF36F8F0A4B7C
:100ABC004FF0006258699860084B5A60084B026FFF
:100ACC001A600022436F426783F31188BFF36F8F64
:100ADC0000F0F8F8204610BD9003002400ED00E073
:100AEC00380200240B498A684FF030001044EFF3B1
:100AFC00098C80E8F01F74467046FFF7CFFFA646BE
:100B0C0004498A6802F1300090E8F01F8CF30988E0
:100B1C0070470000900300241EF0040F0CBFEFF38D
:100B2C000880EFF30980816911F8021C0229FFD0BB
:100B3C0001B503F0FEF901BD00B2002807DB01236B
:100B4C00410900F01F00024A834042F821307047EF
:100B5C0000E100E000B2013100284FEA0111C9B2F6
:100B6C0006DB00F1604000F5614080F8001370472F
:100B7C0000F00F00014B1954704700BF14ED00E05A
:100B8C000F4A08B522F07F020E4B9A60BFF34F8FCD
:100B9C00BFF36F8FD3F8882022F47002C3F888203B
:100BAC00EFF3148323F0040383F31488BFF36F8FE4
:100BBC0001F08EF901F04CFD00F05AF801F0D6F975
:100BCC000000000800ED00E042F8203C203A009BB9
:100BDC0007495360019B21F001019360029B9161D5
:100BEC00D3604FF08073D361002302654367704775
:100BFC0059060008094A0346906870B113F1160FA4
:100C0C00006E05D0A0F140029A4205D8834203D26F
:100C1C00814228BF002070470020704790030024B9
:100C2C0015460C4A0E4608B50B4B9060026F1A60C5
:100C3C0000F048F82C4686F309884FF00000074B6B
:100C4C00984720464FF000014FF000024FF0000390
:100C5C00034C204790030024380200244F3F000827
:100C6C0059060008014B10221A61704700ED00E094
:100C7C00002304481021C2180133A32B82F800135F
:100C8C00F9D1704700E100E008B5EFF30583064A9F
:100C9C00103B02EBC30152F8330049688847BDE8AA
:100CAC000840FFF74DBD00BFE44B0008024B01218B
:100CBC00024A034800F076B8000005240000002426
:100CCC00EC530008026E4021044B403A18461A605F
:100CDC00034AC3E90112012100F06EB83C02002462
:100CEC0000000B15084AC2F898000B6823F01F038C
:100CFC00034343F01003C2F89C308B6843F00103AC
:100D0C00C2F8A030704700BF00ED00E02DE9F043C1
:100D1C000E4685B01F4604464FF00009DFF854809C
:100D2C00B14523DA6068D8B13FB1411E08421BD1EE
:100D3C001F2819D92368194216D12368019303F08F
:100D4C0014F9A3680343D0B20393D8F89050C5F3B9
:100D5C000725013DA84207D801A9FFF7C3FF421C94
:100D6C0009F101090C34DBE76FF01502104605B0F0
:100D7C00BDE8F08300ED00E0044B0522C3F894209D
:100D8C00BFF34F8FBFF36F8F704700BF00ED00E0D4
:100D9C00BFF35F8F024B0022C3F89420704700BF53
:100DAC0000ED00E010B5034C01232278FFF7AEFFF5
:100DBC00207010BDC00300240B4A08B50023127824
:100DCC00FFF7A4FF10F1160F07D0084A0021D2F844
:100DDC009030C3F30723984200DB08BDC2F898009B
:100DEC000130C2F8A010F2E7C003002400ED00E0CF
:100DFC00544B2DE9F043544C85B0D3F89030256812
:100E0C00C3F307239D4200F29A8000200C26FFF7C3
:100E1C00BFFF85421AD14D4C68464D4F2570FFF7E8
:100E2C005BFC00250646DFF81C81DFF82891AE42FA
:100E3C0013D1237800204349D1F89020C2F3072224
:100E4C00934276DB0020FFF797FF42E0616806FBD8
:100E5C000011FFF747FF0130DBE700984FEA051C54
:100E6C0000EB0511CB683B40B3F5000F48D00AD816
:100E7C00B3F5001F30D0B3F5800F36D0B3F5801F1B
:100E8C0010D00135D3E7B3F1807F42D0B3F1007FAE
:100E9C00F7D150F80C30886803F067F84A6840F4D2
:100EAC00802009E050F80C30886803F05EF840F0C0
:100EBC0088504A6840F4302003902078CDE9012313
:100ECC00D8F89030C3F30723013B98422AD96FF02E
:100EDC00150005B0BDE8F08350F80C30886803F0BD
:100EEC0044F84A6840EA0900E6E750F80C30886894
:100EFC0003F03BF840F0E0604A6840F40030DBE778
:100F0C0050F80C30886803F030F84A6840F0827072
:100F1C00D2E750F80C30886803F027F84A6840F0A4
:100F2C008870C9E701A9FFF7DDFE23780133237030
:100F3C00A7E7C1F898300133C1F8A0007CE74FF067
:100F4C00FF30C6E700ED00E098530008C003002412
:100F5C000000F0FF0000081108B5024B1B68984711
:100F6C00002008BD48020024034B044A1860937803
:100F7C0043F00203937070474802002408000024D9
:100F8C000649074821F00701C1F1105208B502F5D6
:100F9C00A02202F05BFF002008BD00BF0712002456
:100FAC004C0200242DE9F041054600244FF00108C5
:100FBC004FF0B0460E4F2B7853FA84F01F280FDCFD
:100FCC0008FA00F3D6F8882033EA020208D1C6F8F2
:100FDC00883057F830301BB107EBC0025168984786
:100FEC0001346A78E3B29A42E5D2BDE8F08100BFE1
:100FFC0058020024044B03EB40000023013320F87B
:10100C00022B9942FADC704744000024084B02463C
:10101C004FF0B04110B433F910000123D1F88040E7
:10102C0093402343C1F8803010BCFFF785BD00BF4F
:10103C00440000240A4B30B553F830408C4204D1A4
:10104C0003EBC0056D68954205D034B943F83010F8
:10105C0003EBC0035A60002030BD6FF00F00FBE7BC
:10106C0058020024034B002243F8302003EBC0034A
:10107C005A60704758020024044B05489B6A03F0E1
:10108C000303022B18BF0020704700BF0044025816
:10109C0000127A0008B50A4B1B6903F03803102BB9
:1010AC0009D0182B09D1FFF7E7FF40F21313800882
:1010BC005843400808BD0348FBE70020F9E700BF90
:1010CC000044025800127A0008B52C4B18680B68C3
:1010DC000A2B21D813B96FF085001CE0013B092BBA
:1010EC00F9D801A151F823F04D110008471100085F
:1010FC00531100081D11000859110008E3100008D5
:10110C00E31000085D1100086B1100087B1100084A
:10111C001B481060002008BDD42B0CD0D83B1C2BD6
:10112C00D9D8012101FA03F316490B421DD140F223
:10113C0011110B42CFD04008EBE74FF40040E8E729
:10114C00FFF7A8FFE5E74FF4FA40E2E70E48E0E7C7
:10115C00FFF792FF40F2131380085843D9E7FFF7CB
:10116C008BFF40F21313800858438008D1E7FFF738
:10117C0083FF40F2131380085843DCE73800002447
:10118C0000127A0000101111006CDC027D4B37B597
:10119C00D3F8E02042F00072C3F8E020D3F8E0204E
:1011AC0002F000720192019A1A6842F480221A60CD
:1011BC001A6842F480321A601A689403FCD55A6F8C
:1011CC0042F001025A676F4B5A6F9007FCD56E497B
:1011DC000A6842F480720A601A6F22F018021A67C9
:1011EC001A6F42F001021A67664B1A6F9107FCD511
:1011FC001A6842F480521A601A689204FCD51A6973
:10120C0002F03802182A17D11A68550707D41A6841
:10121C0042F001021A605B4A13685C07FCD5594B1B
:10122C001A6922F007021A611A6912F0380FFBD101
:10123C009A6922F00F029A61524B1A6822F080725E
:10124C001A609A6A22F0030242F002029A629A6AC7
:10125C0022F47C7242F040029A62DA6A22F00C02AA
:10126C00DA62DA6A42F00202DA621A6B22F4FF7274
:10127C0022F0010242F489721A63DA6A22F0010246
:10128C00DA621A6B22F47E421A63DA6A42F4803212
:10129C00DA621A6B22F4FE0242F440321A63DA6A02
:1012AC0042F40032DA621A6B22F0FE4242F0807293
:1012BC001A63DA6A42F48022DA621A6842F08072A7
:1012CC001A601A689001FCD52F4BDA6822F00702DD
:1012DC0042F00202DA609A6922F440429A619A69F9
:1012EC009104FCD5294DFFF7D5FE0446A84202D83F
:1012FC00274800F091FC234B9A6922F470629A61A2
:10130C009A6922F00F0242F008029A61DA6922F01F
:10131C00700242F04002DA61DA6922F4E06242F4CF
:10132C008062DA619A6922F0700242F040029A619E
:10133C001A6A22F0700242F040021A621A6922F014
:10134C00070242F003021A611A6902F03802182AE5
:10135C00FAD1AC4202D90E4800F05EFC0A4BDA68B6
:10136C0022F0070242F00202DA609A6922F440424B
:10137C009A619A699204FCD5064B0020064A1A60C1
:10138C0003B030BD0044025800480258BF2A641014
:10139C00C02A6410380000248055C82008B50748BE
:1013AC0003F0FFF838B10648FFF7DEFD0448FFF7FD
:1013BC002FF9002008BD6FF01200FBE7BC4B0008B2
:1013CC00D11300080A2838B50446074D04D1AB6880
:1013DC000D2128465B689847AB68E1B202485B6810
:1013EC009847204638BD00BFBC4B000838B5036990
:1013FC0004465860084D284603F0D3F840B16168A4
:10140C002846AB680C311B68984700EAE07038BD81
:10141C006FF01200FBE700BFA44A000873B50C463E
:10142C0011461E464568B1F5001F026928D104F02B
:10143C0003030F223B4904339B009A4042EA940277
:10144C0002F00303023351F82310130C93FAA3F3A5
:10145C00B3FA83F301EA124203F01F0322FA03F3F7
:10146C00AA689A4209D1204602F0DDFD2046FFF71A
:10147C00F9FD0021204602F0E3FD002002B070BD12
:10148C00B1F5800F44D028492046FFF7D3FD002842
:10149C0041D1B6F1806F37D0B6F1C06F36D0B6F10E
:1014AC00007F3BD10226214A6B46AD6892E80300CF
:1014BC0083E803001E481946826812689047D8B921
:1014CC0004F003030F2104339B00994041EA94017B
:1014DC0001F003030A0C92FAA2F29B00B2FA82F218
:1014EC0003F1B04302F01F02D3F80804954020EA40
:1014FC0011410D43C3F808542046314602F0A0FDBB
:10150C002046FFF783FDB8E70126CCE70326CAE7A0
:10151C006FF08500B2E76FF00F00AFE76FF01500CA
:10152C00ACE700BF0004005811430008005100084C
:10153C00A44A00082DE9F047044600EBC10600253B
:10154C001C4FB44201D1002014E02068C30600F007
:10155C001F0911D4656845F02005C0F3481AC0F383
:10156C0044200F2823D857F82080B8F1000F0DD154
:10157C006FF01200BDE8F087B9F1100F04D0B9F18B
:10158C00110FEAD16568E8E73025E6E7404603F03D
:10159C0008F80028ECD04B462A460AF00F014046CA
:1015AC0002F0C7FE002804F10804CADAE2E76FF083
:1015BC001500DFE718550008F8B50C4603694168BB
:1015CC005D682379012B15D09F1E7E427E41B602A9
:1015DC006279022A96BF444F4FF4005737F81270C5
:1015EC00A279022A09D0042A2FD0003B18BF01236C
:1015FC001B0306E04FF4C066EAE7B3FA83F35B091A
:10160C001B07E2790968012A14BF4FF0000C4FF454
:10161C00407CA5421CD10A6822F0805222F4B052C0
:10162C0032431A430A604B6823F440533B434B60EC
:10163C0043681A68936823F4407343EA0C0393607D
:10164C002968BDE8F84002F01ABF4FF48053D8E780
:10165C00D1F800E00EF4C06E764506D0D1F800E06B
:10166C002EF4C06E4EEA06060E6041680E68716874
:10167C0001F440518F4204D0716821F44051394338
:10168C00716041680E68316801F010218B4204D002
:10169C00316821F010210B433360436819688B6863
:1016AC0003F440739C4505D08B6823F4407343EAE4
:1016BC000C038B6043681B689968490405D5032AA1
:1016CC0009D09A6822F4804204E0032A03D19A6874
:1016DC0042F480429A6021682B68994203D002F050
:1016EC00CEFE23682B60F8BDD8560008F7B5064629
:1016FC00446805695B48286002F053FF002800F03D
:10170C00AA802868E16883681B6898470028C0F2A3
:10171C00A48001AA0021206A02F023FE0028C0F256
:10172C009C80019B002219791868FFF703FF0028A1
:10173C00C0F29380756833692C685F68236823F066
:10174C0001032360686802F02CFF002800F08380FE
:10175C00D5E901018368DB6803B1984754E8003F81
:10176C0043F00C0344E80032002AF7D139463046E6
:10177C00FFF722FF2B7D1BB1A36843F00803A36086
:10178C006B7D1BB1636843F400436360AB7D1BB19D
:10179C00636843F480336360EB7D1BB1636843F48F
:1017AC00003363602B7E002B43D02F4B9C4226D002
:1017BC00A3F54C439C4222D003F580639C421ED07F
:1017CC0003F580639C421AD003F580639C4216D0CB
:1017DC0003F544439C4212D0A3F51C439C420ED00B
:1017EC0003F580639C420AD003F51C439C4206D04F
:1017FC0003F580639C4202D01C4B9C422FD1736832
:10180C001A68936843F48043936023686A7E23F0DC
:10181C00787343EA425323602368AA7E23F4F813B7
:10182C0043EA02432360EB7E1BB1A36843F40043FD
:10183C00A3602B7F1BB1236843F000532360236804
:10184C0043F001032360E3699A02FCD5E3695B0270
:10185C00FCD5002001E06FF0120003B0F0BD6FF07A
:10186C001500FAE7A44A000800100140000C0058CB
:10187C00F8B5436802460E4691F805E01C6803690A
:10188C0008795D6801288B7922D1BEF1020F40F2F4
:10189C008180022B1F464FF4C0614FF4005C00F0B6
:1018AC009380042B00F08A8028B1C31E012B40F2D8
:1018BC0088804FF48050BCF5805F00F08F80BCF5C1
:1018CC00405F00F08D80BCF1000F1CD101231BE0A8
:1018DC0002280AD1BEF1020F69D9022B1F464FF420
:1018EC0080610BD04FF4005CDBE7BEF1020F61D9D5
:1018FC00022B1F4660D100286CD00021C31E012B87
:10190C005FD900200227032373455AD102F075FDDD
:10191C00B84256D1F3795BB3012B63D1334B9C4264
:10192C0026D0A3F54C439C4222D003F580639C4205
:10193C001ED003F580639C421AD003F580639C4251
:10194C0016D003F544439C4212D0A3F51C439C4291
:10195C000ED003F580639C420AD003F51C439C42D5
:10196C0006D003F580639C4202D0214B9C4228D1C7
:10197C0023683146104623F001032360FFF71CFE59
:10198C00236843F00103236096E8030085E8030015
:10199C000020F8BD4FF4C061164F022B37F81EC063
:1019AC001F467FF47EAF78B94FF0805083E74FF439
:1019BC008061F1E70021EFE7002193E700283FF475
:1019CC0078AF6FF08500E4E7C31E012BF9D902272D
:1019DC00002070E701464FF0805094E7002393E716
:1019EC00022391E7032B99D0EBE700BF00100140D5
:1019FC00000C0058D85600084FF0E0230F4910B5E2
:101A0C009C691A6908689B6902F480320C4934B9E4
:101A1C0093B903464AB90A681044C01A10BD002B8A
:101A2C0008BF03460AB9A342F5D90A6802440A6002
:101A3C004FF0E0221269EEE70446F3E78C03002432
:101A4C00880300240A4B1022002083F823204DF237
:101A5C00D862084B1A604DF2D762074B18604FF0F2
:101A6C00E0235A6198611A6942F007021A617047C3
:101A7C0000ED00E08C0300248803002410B5FFF770
:101A8C00BBFF1049104B0868D3E90042001942F122
:101A9C000002C3E900020D4A00230B604DF2D8632B
:101AAC00D2E90041001BB0FBF3F043431B1941F199
:101ABC000001C2E9003100F0B1FEBDE81040FEF7B4
:101ACC003FBE00BF8803002490000024880000243F
:101ADC002DE9F041DFF8E08099B1421C0BD14FF0B9
:101AEC00E022136923F0010313614FF07F43C8F820
:101AFC000030BDE8F081D8F80060012807DC002731
:101B0C000BE0431CD8F80060F7D14FF4987040F20A
:101B1C0031139842A8BF1846471EEFF311851023C6
:101B2C0083F31288BFF36F8FFFF766FF234C4FF0E0
:101B3C00E0239969D4E9002380184FF0000243F1A7
:101B4C000003C4E900031E4B1A601E4B1A68831A6B
:101B5C002ED44DF2D86C0CFB073303F55643D73318
:101B6C00B3FBFCF7131A40F66D520CFB0733934290
:101B7C0038BF1346144A934228BF1346C8F80030A6
:101B8C004FF0E022013B9069536100238142936145
:101B9C00A1EB0003D4E9001238BF9B195B1842F18A
:101BAC000002C4E9003285F31188BFF36F8FA0E700
:101BBC0040F66D53E2E700BF8C0300249000002434
:101BCC0088030024880000248020FF0038B5EFF340
:101BDC001185102383F31288BFF36F8F084B1C6899
:101BEC00084B1B68E41AFFF707FF85F31188BFF356
:101BFC006F8F4DF2D8632044B0FBF3F038BD00BFBB
:101C0C009000002488000024024A536823F0020349
:101C1C00536070470010005C024610B578B14F4914
:101C2C008B6913F440433FD14D484E4C1044A042B5
:101C3C0007D28B6903F44043B3F5404F51D10120D7
:101C4C007CE04948494C1044A04246D948481044CD
:101C5C00A04244D947488242886900F4404007D9E1
:101C6C00B0F5404FEBD08969012001F440414CE0C4
:101C7C00B0F5404F45D1404B1344404A93428CBF82
:101C8C00002301233E490A6822F00F021A430A601E
:101C9C000A6802F00F029A425ED0086800F00F004A
:101CAC00C01A18BF012049E000232C48816901F4B7
:101CBC004041B1F5404F2BD1324933481144814258
:101CCC0046D92D49A0F574201144A0F5107081421D
:101CDC0040D92E498A42D5D9B1E70223E5E7012341
:101CEC00E3E78B69002003F44043B3F5004F4FF05A
:101CFC00030319D02649274C1144A14226D9264961
:101D0C0018E08969184601F44041B1F5004FF0E73D
:101D1C00816901F44041B1F5004F10D11F492048B1
:101D2C001144814214D900201E491D4C1144A1427A
:101D3C000CD91D498A4282D80028A3D010BD0C4969
:101D4C001A481144814203D30020D3E70123F3E75F
:101D5C00022397E7012395E71846A1E700480258AC
:101D6C007FA77BF340D2DF03FFC4A7F77F1D2C04B2
:101D7C007FE2D3FB801D2C043FA901FC7F14EF03F1
:101D8C0000200052BF9412F8BF56FE03C056FE034B
:101D9C003FF1E9FDBF0E1602C00E1602FF1E0AFA35
:101DAC007FF0FA027F0F05FD80F0FA02C0E1E4003B
:101DBC0038B5EFF31185102383F31288BFF36F8FBF
:101DCC00064B9C6802F000FC85F31188BFF36F8F03
:101DDC002046BDE83840FEF733BE00BF9003002418
:101DEC0038B5094B53F82040013053F82050A54228
:101DFC0000D838BD636823B1204602F0E8FB0834F4
:101E0C00F5E723689847FAE7185600082B4B012290
:101E1C00032070B52A4C86B02A4D1A70FFF7E0FFEC
:101E2C0000F07EFD02F0EFFB0420FFF7D9FF264601
:101E3C003034AE4210D3224C00F0A4FA224EAC4205
:101E4C0026D300F0B3FAFEF7A5FB204A137B23F050
:101E5C000103137306B070BD54F80C3C059354F891
:101E6C00103C049354F8143C039354F8183C02931C
:101E7C0054F81C3C019354F8203C009354E90A2379
:101E8C0054E90C0100F0DAF854F8303C5E65CEE70A
:101E9C00D4E90A23B3F1FF3F08BFB2F1FF3F05D0ED
:101EAC0052EA0301206803D102F0B9FB3034C6E7D3
:101EBC003146183000F038FCF8E700BFC1030024AD
:101ECC00FC500008FC500008E546000818010024EE
:101EDC0006480021064A08B5121A02F090FB054884
:101EEC00054A0021121A02F08AFB08BD8800002462
:101EFC00C4030024000000200000002070B5002363
:101F0C0086B00122144E01930446144D06EBC01604
:101F1C001349CDE904230F22CDE9023214234FF4E7
:101F2C00A07203FB00554FF4C0700E4B00FB041164
:101F3C003046009500F082F8737B0B4A23F00403C3
:101F4C00EE602C7473734FF4046304FB033313447B
:101F5C006B6006B070BD00BF980000249003002495
:101F6C00400C00241546000800040024BFB50020D6
:101F7C00FFF736FF294B83F30888294D0024F02303
:101F8C00284E294F85F82230EC772C766C76AC767F
:101F9C0085F820406B6A43F4E0236B62FEF728FD62
:101FAC00FEF760FE4FF0FF33AB62EB62FEF720FFF3
:101FBC001E4DFEF77BFE1E4B40F20112B3609A8160
:101FCC00DC66C3E9184402F0EBFA0120FFF708FFC6
:101FDC000220FFF705FF00F009FA164B75614FF46C
:101FEC00806205930123144928460094CDE90343EC
:101FFC00CDE901443B4600F021F86A7B06462846B1
:10200C0022F004026A7302F01EFB2046FFF776FFF3
:10201C003A4631462846FEF703FE00BF400C00242A
:10202C0000ED00E090030024191E000818010024A4
:10203C009801002437580008C00D002407322DE900
:10204C00F04322F0070285B00E461F46109900F1AE
:10205C0058037F3204460173042122F03F0206F13B
:10206C00400941733F2AA2F14008C0E916334FF0F2
:10207C00000383600F98E373A073C4E9063305D89B
:10208C0083F31188BFF36F8F084602DFB518204623
:10209C002946FEF735FB07300E9B314620F0070032
:1020AC00C4E91898A0662D1A029320460D9B2A4667
:1020BC0001930C9B00933B46FEF786FD0023636562
:1020CC00044B9B6803B1DB6E2846E36605B0BDE8A4
:1020DC00F08300BF9003002438B50D4D2B4653F808
:1020EC00184F9C4200D004B9EC68AB6838B95A7BE5
:1020FC00D20604D1A26912B9DA897F2A05D89C428A
:10210C0002D0204600F04CFA23466B6138BD00BF6C
:10211C009003002408B590F90D200146437B002A5A
:10212C0004DA03F07F03437302F07BFA044B9868E4
:10213C00431A58425841BDE80840FFF7CDBF00BFD5
:10214C009003002470B490F90D30427B002B29DBF6
:10215C00D30627D183692BBB62F07F0212494273ED
:10216C000A4652F8184F944218BF2346CC6923B93B
:10217C00C0E900242060C8610CE090F90E5093F97E
:10218C000E60B5420AD0AE4208DD5A68C0E9003292
:10219C0010605860002070BCFFF79EBF9C42E7D0D7
:1021AC001B68E4E770BC704790030024002A2DE9FB
:1021BC00F0410E46427B0CBF10210821044611420F
:1021CC000FD141EA0203D20918D1437308291BD05D
:1021DC000120FFF781FFBFF35F8F637B23F0600368
:1021EC006373274B9B68A34243D1EFF30583002B0A
:1021FC003FD13046BDE8F041FEF738BC03F07F0319
:10220C00437302F00EFAE1E7A36813B1204602F023
:10221C0010FA04F1180004F1580702F083FAA56DC6
:10222C00AF4211D04FF0000875B1284602F001FA08
:10223C0005F1180002F076FA2846C5F87880FFF709
:10224C0081FFA56DAF42EFD10D4DAB689C42BFD164
:10225C00EFF30583002BBBD00120FFF73DFF094BAB
:10226C0040F20112AB609A810022C3E91822DA66AF
:10227C00B1E786F31188BFF36F8FBDE8F08100BF23
:10228C00900300249801002470B590F90D200146AC
:10229C00437B002A04DA03F07F03437302F0C1F995
:1022AC004B7B154A63F07F0310464B7350F8183F75
:1022BC00D469834208BF002323B9C1E9000421601B
:1022CC00D1610CE091F90E5093F90E60B5420ED02D
:1022DC00AE420CDD5868C1E900300160596090686D
:1022EC00431A5842BDE870405841FFF7F5BE9C4276
:1022FC00E3D01B68E0E700BF9003002449B9EFF37B
:10230C00058030B9054B5A699B689A4201D0FEF79B
:10231C00ADBB81F31188BFF36F8F7047900300241E
:10232C0010B5EFF31184102282F31288BFF36F8F74
:10233C00427B510704D484F31188BFF36F8F10BD17
:10234C0022F004024273FFF7FDFE21460248BDE86D
:10235C001040FFF7D3BF00BFC2030024034648B9A7
:10236C00EFF3058232B9064A51699268914201D065
:10237C00FEF77CBB83F31188BFF36F8F704700BFF0
:10238C0090030024EFF31181102383F31288BFF321
:10239C006F8F054B9A68D37B013BD37381F3118804
:1023AC00BFF36F8F704700BF9003002438B5EFF375
:1023BC001185102484F31288BFF36F8F0A4B002011
:1023CC009A68D37B0133D373FFF786FE85F31188AC
:1023DC00BFF36F8FEFF3118084F31288BFF36F8F0D
:1023EC00BDE83840FFF7BABF90030024024B03F15D
:1023FC001802C3E90622704790030024F8B5EFF3E6
:10240C001185102383F31288BFF36F8F19498868E5
:10241C00437B03F07F03437302F003F98B68084698
:10242C005A7B62F07F025A7350F8182FCC698242A3
:10243C0008BF002222B9C3E900042360CB610CE081
:10244C0093F90E6092F90E70BE420ED0B7420CDDBD
:10245C005168C3E900210B6053600120FFF73CFE7B
:10246C002846BDE8F840FEF701BBA242E3D0126853
:10247C00E0E700BF9003002450EA01032DE9F0418E
:10248C0005460E4603D1FFF7B9FF00202BE0831C55
:10249C0071F1FF3329DB02F05AF92C18EFF3118894
:1024AC00102383F31288BFF36F8F124F124BB8684F
:1024BC001860FFF72FFEB8682A46104933461830CB
:1024CC0000F032F9BA684046537B43F01003537363
:1024DC00FEF7CCFA02F03BF9201A63EB0303012858
:1024EC0073F10003D1DBBDE8F0816FF00104241A15
:1024FC00D4E700BF90030024B0030024E546000895
:10250C00B1F1FF3F08BFB0F1FF3F08B506D1094B51
:10251C00986802F0A7F84FF0FF3008BDFFF7ACFF4A
:10252C000A22C11709304FF0000341F10001FDF7F9
:10253C00C7FEF2E790030024014B9868704700BF78
:10254C0090030024044B0122C01A044BC0105843C2
:10255C00034B1A54704700BF18020024ABAAAAAA56
:10256C00C2030024C3897F2B12D80A4B1B6863B1AA
:10257C00094B90F90E201B689A4209DB437BDB0662
:10258C0006D1064BC31A18BF012303F00100704794
:10259C000023FAE7B8030024B403002498000024B5
:1025AC000E4B70B51E7C05460D4C06EB460304EB3A
:1025BC00C304204602F0B6F80A4B002228469A556E
:1025CC00FFF7D0FF48B1084B204608491A68013A7A
:1025DC00BDE87040D31700F0A7B870BD900300247D
:1025EC0018020024C2030024B8030024512500085B
:1025FC0038B5EFF31185102383F31288BFF36F8F77
:10260C00104B114A9C681068A04206D1FFF7C8FF16
:10261C0085F31188BFF36F8F38BD00211B7C1160CF
:10262C000A4AD35C002BF3D02046FFF79BFF00280F
:10263C00EED0637BDB0602D12046FFF725FE204659
:10264C00E4E700BF90030024B0030024C20300247D
:10265C0009480A4A0A49121A08B501F0D2FF094A78
:10266C0009490A4801F0CDFF09480A4A0A49121AD9
:10267C00BDE8084001F0C5BF000000248400002420
:10268C00885800080000000088580008000000244A
:10269C0000000020000000200C590008034B1B68B0
:1026AC000BB9FFF793BA0020704700BFBC0300249E
:1026BC0030B570B10B4B5B6898420AD0036843B1DC
:1026CC00D3E90421D0E90445121941EB0501C3E912
:1026DC000421D0E9003213605A600023C0E90033B2
:1026EC0030BD00BF3C0000240E4B10B51C689C4252
:1026FC0004D1FFF7D3FF6FF0004010BDFFF7CEFF02
:10270C00002CF8D0D4E904321B1A62EBE072B3F15E
:10271C00004F72F10001EEDA002AACBF184600201F
:10272C00EBE700BF3C000024B3F1FF3F08BFB2F160
:10273C00FF3FF8B504461D4616465ED08160EFF3A8
:10274C001187102383F31288BFF36F8F013275F159
:10275C00FF3324DA2E496FF00103D1E900209B1AD4
:10276C004FF0FF3262EB00009E1B60EB0500012E68
:10277C0070F1000301DA01260020C4E90460254E43
:10278C00D6F800C07568B44508BF4FF0000CBCF11A
:10279C00000F0DD1C4E900652C6074601CE0FFF7DC
:1027AC007DFF013645F10005361845EBE070E4E796
:1027BC00DCE90420D4E90431934271EB000E1DDAFC
:1027CC00D21ADCF8043060EB0100CCE90420C4E937
:1027DC0000C31C60CCF804403368B34209D09C425F
:1027EC0007D10D4B1C6824B9FFF77EFF2146FFF77C
:1027FC006FF987F31188BFF36F8FF8BD9B1A61EBEC
:10280C000001AC45C4E90431C4D0DCF800C0BEE71B
:10281C00300200243C000024BC0300242DE9F84FB6
:10282C00EFF3118C102383F31288BFF36F8FDFF853
:10283C00B4A00024DFF8B09000252C4FC9F800009C
:10284C00DAF80000504508BF0020D9F80030E04607
:10285C00D7E9002178B34FEAE37ED0E9046CB342A8
:10286C007EEB0C0B05DAF61A6CEB0E04C0E9046473
:10287C0021E0B21841EBE671C0E90445C7E900213B
:10288C00FFF716FF88F31188BFF36F8F83689847A3
:10289C00EFF31188102383F31288BFF36F8FD9F8ED
:1028AC000030C446DAF800009B1B5045C9F80030D4
:1028BC00CBD1D7E900219A184FF0000441EBE37318
:1028CC00C9F80040C7E90023FFF70EFF2146FFF7C8
:1028DC00FFF888F31188BFF36F8FBDE8F84FFFF74F
:1028EC0087BE00BF3C000024BC030024300200243F
:1028FC0010B5EFF31184102383F31288BFF36F8F9D
:10290C00FFF7CCFE054A0346D2E90001181841EB4B
:10291C00E37184F31188BFF36F8F10BD3002002474
:10292C00014801F0EDBA00BF3C5800080FB407B5E0
:10293C00064B04AA186852F8041B019200F0A4F884
:10294C0003B05DF804EB04B0704700BFF853000807
:10295C002DE9F04101260746B24201DCBDE8F081C9
:10296C003B461F4613F8014B002CF7D0252CF8D111
:10297C001C78252C07F10207F2D00023DFF8048124
:10298C009C461D461F2D18D8A4F1200EBEF1100F29
:10299C0009D9A4F1300EBEF1090F1ED80A2404FB8C
:1029AC0003E3202504E028FA0EFE1EF0010F06D0EA
:1029BC0017F8014B002CE5D128E07F2D1CD8A4F191
:1029CC00300EBEF1090FE9D9242C10D1BCF1000F47
:1029DC0046D0B34246D00023EAE724F0040EBEF101
:1029EC002A0FF8D06C2C09D145F08005E0E724F0D3
:1029FC00040EBEF12A0FEED06C2C22D06C2C1BD8FE
:102A0C00682C23D06A2C28D04C2C26D0BCF1000F7B
:102A1C00A4D0B445A0D144F02007A7F1650CBCF1BB
:102A2C00020F0B6801D9612F1ED1073323F0070366
:102A3C0008330B6001368EE7742CB9D07A2CB7D0E2
:102A4C00E4E72C0648BF45F40075CDE7EC0548BF1C
:102A5C0045F4007545F48075AAE745F42075A7E7A1
:102A6C009C46B8E76324D6E7692C02D007D8632CC0
:102A7C0003D02F0601D5AC05D7D40433D9E7732C7A
:102A8C00F6E700BF892801002DE9F04F95B04368A7
:102A9C00039383789B07CDE90A12804611D50D92DA
:102AAC000B4600261F7877B1252F10D001330993E0
:102ABC00039B414638469847002806F1010680F2F0
:102ACC002E854FF0FF36304615B0BDE8F08F5F789D
:102ADC009A1C252F0992EBD000242546A246A3462A
:102AEC00BBF11F0F32D8A7F12003102B0AD8DFE857
:102AFC0003F02409092A0909091B090909220927D4
:102B0C0009091900A7F13003092B2DD92A2F39D126
:102B1C0054B90D9B1BF0400F53F8042B0D9329D087
:102B2C00154601E04BF0010B099B13F8017B09934F
:102B3C00002FD5D156E04BF0020B4BF0040BF3E712
:102B4C004BF0080BF0E74BF0100BEDE7BBF17F0FF0
:102B5C003FD8A7F13003092BD8D81BF0400F03D076
:102B6C000A2202FB0535DFE70A2202FB0A3A4BF088
:102B7C00200BD9E7B2F1000AF9DACAF1000A4BF0DE
:102B8C00280BD1E72E2F05D11BF0400F9BD14BF01A
:102B9C00400BC9E7242F1CD1002C00F08A800B9B22
:102BAC000D931BF0400F0AD152460A980DA9FFF75E
:102BBC00CFFE0D9B1A1DD3F800A00D92B4E72A4648
:102BCC000A980DA9FFF7C4FE0D9B1A1D1D680D92E6
:102BDC00AAE76C2F5AD052D8682F5FD06A2F65D0D5
:102BEC004C2F63D034B10B9B0A980D9322460DA940
:102BFC00FFF7AEFE002D47F02003B8BF2BF0400BC3
:102C0C000793A3F16503BCBF1FFA8BFB0025022BB6
:102C1C0054D947F02003612B40F06383FF4307F046
:102C2C00200308930D9B073323F0070303F10802DD
:102C3C000D924BF4C05204921A6805925A68DDF852
:102C4C0014C0C2F30A57C2F3130047EA0C0353EA49
:102C5C00000401460BF040044FEAD27259D13027E0
:102C6C00D2B28DF83D708DF83C20A7B2002C00F04C
:102C7C00BF810C2D4FF000075DDD0D25B2E0742FE8
:102C8C003FF452AF7A2F3FF44FAFABE71BF0800FFE
:102C9C0018BF4BF4007B4BF0800B45E71BF4807F97
:102CAC0018BF4BF4007B4BF4807B3DE74BF4207B4F
:102CBC003AE72546AB465446AA4635E7FF4307F0AC
:102CCC00200308930D9B073323F0070303F108023D
:102CDC00D3E90001079B0D921BF0400F08BF06259E
:102CEC00652B40F099816B1C0022DBB24BF4805BAE
:102CFC001446112BCDE9002428BF11230EAA00F095
:102D0C00ADFCC3B2059302230E9FCDF810B0069311
:102D1C0080E0002F00F03B813123D2B28DF83D30A2
:102D2C00A7F2FF378DF83C20A3B2002C00F057819E
:102D3C000C2D00F35681C5F10D018900012301F121
:102D4C00FF39A1F12104C1F1210E23FA0EFE03FA81
:102D5C0004F403FA09F344EA0E0413EB030E44EBF8
:102D6C000409DEF1000BCDF818B069EB490BCDF876
:102D7C001CB0DDF814B01EF1FF3E49F1FF390EEA2C
:102D8C000B0E09EA0009734574EB090912DBC1F15A
:102D9C002009B1F1200E00FA09F92BFA01F141EAF0
:102DAC0009015CBF40FA0EFE41EA0E0111F0010F61
:102DBC0000F0F0800599CB1840EB0400B0F5801FB3
:102DCC009C46C0F2E7809DF83D10B7F5806F01F18D
:102DDC0001018DF83D1000F0E980069A07991A4020
:102DEC0013460140089A0D20C2F1570403F00F025C
:102DFC001B0943EA01730911002A40F0FE80854249
:102E0C0080F2FD800138F1D10E230120CDE905308F
:102E1C007023079307F10902122A3B4600F2D18076
:102E2C009DF83CB00BF00C091BF0010B40F02D8110
:102E3C00049B9A0700F1238113F0040400F0028133
:102E4C00B9F1000F40F027814FF02009049B13F4D7
:102E5C00405F23D1059B5033002D6B4408BF0125E7
:102E6C00133B059A22B113F8012D302A00F047814B
:102E7C00049B13F0100F059B18BF2B46381DC0F296
:102E8C004381BD4240F34081049A42F4005292B215
:102E9C00BB42049240F33A817D1C5D1B049B13F4EE
:102EAC00005B00F0358127EAE7740134B9F1000FBB
:102EBC0000D00134002D00F034816B1C1C44049BA9
:102ECC00A245CCBFAAEB0404002413F0090F04D1D3
:102EDC003444A64240F02A810024B9F1000F08D0F6
:102EEC00039B414648469847002806F10106FFF629
:102EFC00E8AD049B1A0513D5039B41463020984737
:102F0C000028FFF6DEAD089BC3F178004146039B19
:102F1C0000F0F8009847002806F10206FFF6D1AD44
:102F2C00049B1B0705D43444B44240F00981264667
:102F3C000024BBF1000F00F0348127EAE77AA7EBFD
:102F4C000A0B6D42059B5B4584BF0EAB5B440AF1DB
:102F5C00FF3A8CBF58793020554506F1010900F332
:102F6C00F980039B4146984700280BF1010BFFF6B3
:102F7C00A8ADBAF1FF3F08D1039B41462E209847DC
:102F8C000028FFF69EAD06F102094E46DAE7302323
:102F9C000127C2E6069B03EA0C0C079B034018466C
:102FAC00B7F5806F26D15CEA00001CD042F0080215
:102FBC008DF83C204FF480670E2305937023079304
:102FCC003B4603F16302C62A3AD903F2E73340F2D7
:102FDC00CE7293428CBF04230323069320E71D4635
:102FEC00DEE70D25DCE742F004028DF83C20E3E738
:102FFC003D46F7E663460146F4E6092A09D8303225
:10300C000DF1380C844485428CF80520B8BF054678
:10301C00F8E62244D2B2F3E7079B662B05D14BF4BA
:10302C00005B2C460122112363E6EBB2012B4FF01F
:10303C0000024FF0650738BF01231446079758E686
:10304C000223CAE7B9F1000F3FF400AFBAF1030F46
:10305C0034DD049B1F07AAF103042FD43444039BD3
:10306C00414620209847002806F10106FFF629ADBD
:10307C00A642F4D1BBF1000F36D0002415E0B9F113
:10308C00000F2BD14FF02B09E0E6B9F1000F28D13E
:10309C004FF02D09DAE64FF0200BBAF1040FECDDFE
:1030AC00049B1D07AAF10404D8D5039B414658463E
:1030BC009847002806F10106FFF603AD9DF83C3059
:1030CC009F4D13F0080F9F4B08BF1D462F46B94666
:1030DC0017F8010B50B9751BA9445DE04FF02B0B91
:1030EC00DBE74FF02D0BD8E75C46E7E7089BC01AEF
:1030FC004146039BC0B298470028E8DAE1E4059A00
:10310C00013AD2B20592ACE65D1EC7E60025C5E6D3
:10311C00049B13F4006F069B0CBF032405241C4472
:10312C00C4E6049BD90648BF0134C8E6039B41465C
:10313C0020209847002806F10106BFF6CAAEC0E46D
:10314C00039B414630209847002806F10106BFF644
:10315C00EBAEB6E4BA450AD19DF83D30352B1ED8FE
:10316C0005D19DF83C3013F0100F08BF3120039BA4
:10317C00414698470028FFF6A4AC049BD8060BD513
:10318C00BAF1FF3F08D106F1020941462E20039BFC
:10319C0098470028FFF695AC4E464C4446E2312049
:1031AC00E5E79DF83D0031281EBF9DF83C3023F02B
:1031BC0010038DF83C304146039B98470028FFF6DE
:1031CC0080AC002D6DDD039B41462E2098470028D6
:1031DC0006F10209FFF675AC01263346059A9642B4
:1031EC003BBF50336B44302013F8130C039B414608
:1031FC009847002809F10109FFF663AC0136F6B2D5
:10320C00AE423346EADDDDE90732981A4146039BAC
:10321C00C0B298470028FFF654AC002F04DB4FD106
:10322C009DF83C30DB064BD57F422D20039B41465D
:10323C0098470028FFF645AC069B042B42D14FF46F
:10324C007A7697FBF6F505F13000039B4146C0B248
:10325C009847002809F10309FFF633AC06FB1577F4
:10326C00642697FBF6F505F13000039B4146C0B28E
:10327C009847002809F10109FFF623AC06FB1577E6
:10328C000A2697FBF6F505F13000039B4146C0B2C8
:10329C009847002809F10109FFF613AC06FB1577D6
:1032AC0018E0049BDA0602D406F10109ABE7039B94
:1032BC0041462E209847002806F10209A3DA00E4C3
:1032CC002B20B3E7069B032B09F10209C8D0069B00
:1032DC00012BD5D107F1300009F101094146C0B2EB
:1032EC0055E7A7F16303122B00F20081DFE813F01E
:1032FC0013005800FE00FE00FE00FE005800FE0009
:10330C00FE00FE00FE00FE001A01F900FE00FE00A9
:10331C002C00FE00BA000D9B1A1D1B680D928DF837
:10332C00383001240EAF1BF0080F2ED007EB040928
:10333C003D46A9452BD1F71BB944AAEB04042BE756
:10334C007A580008765800080D9B1A1D0D921F68BC
:10335C00AC4B002F08BF1F461BF0400F14BF294673
:10336C004FF0FF31384601F0F6F90446DBE7039BDA
:10337C004146202098470028FFF6A3AB013DA5420B
:10338C00F5D85644761BAA46D0E75546F7E715F80C
:10339C00010B039B414698470028CADAFFF791BB03
:1033AC001BF0800F0D9B3CD01BF4007F34D00733F7
:1033BC0023F00703D3E9000103F108020D922BF06F
:1033CC00100900291FFA89F93DDA404261EB4101ED
:1033DC0049F480690DF1380B0A235A4601F0C7F9FC
:1033EC0019F0400FA0EB0B0B65D029F001025D45E5
:1033FC0092B240F3B380002F00F0AB8019F01003B1
:10340C002C46914640F0AD8040F2064319EA030386
:10341C001CBF0134002355E01A1D18680D92C1170A
:10342C00CDE71A1D1BF4807F19680D9201D1084657
:10343C00F5E71BF4007F15BF48B208B241F3C01189
:10344C0041F3C031BBE750EA0103C3D11BF0400F7D
:10345C00C0D0002DBED12BF0110B1FFA8BF9AB464F
:10346C002C46D1E72BF0100B1FFA8BFB0A231BF019
:10347C0080040D9A59D01BF400711DBF073222F045
:10348C00070202F10801101D19BF0D91D2E90001CC
:10349C000D90106850EA010254D12BF016091BF064
:1034AC00400F1FFA89F951D0002D4FD12BF0170B7B
:1034BC001FFA8BF9AB4619F0100354D0002F4FD1E3
:1034CC000BF1010419F0080F60D119F0010F06D0AF
:1034DC00A2456FDDAAEB040404EB0B05544622460F
:1034EC004FE04BF0100B10237827C0E747F0200378
:1034FC00782B05D1582F14BF10234FF40473B6E763
:10350C00039B4146252098470028FFF6DAAA039B27
:10351C004146384698470028FFF6D3AA0236099B45
:10352C00FFF7C0BA08230027A1E7111D0D911BF46A
:10353C0080711068AED01BF400711ABFC0B2214666
:10354C0080B2A7E72BF0060B1FFA8BF90DF1380BA5
:10355C0043E729F011091FFA89F981E79146AAE797
:10356C005C460234AEE75C464EE7CDE904234146A7
:10357C00039B202098470028FFF6A3AA049A059BDA
:10358C0001329245F1DC341BA6181446A3B1039BFF
:10359C004146302098470028FFF693AA87B302369D
:1035AC0041463846039B98470028FFF68AAAB14645
:1035BC0035441CE05D4692E740F2064319EA030FDE
:1035CC00F5D019F0020F14BF2B20202019F4806FB6
:1035DC0006F10106414618BF2D20E3E7039B414647
:1035EC0030209847002809F10109FFF66AAAA5EBDB
:1035FC0009035B45F2DC5D460EAE2DB9D9449CE661
:10360C000136D4E77E580008013D039B705D4146AE
:10361C0098470028F1DAFFF754BA039B4146202063
:10362C009847002806F10106FFF64BAAA31B002BB6
:10363C00F3DC74E71FB502AB0093074A4FF0CC33B1
:10364C0001F07CF9DDE90201C00840EA4170C908CB
:10365C0005B05DF804FB00BFCDCCCCCC2DE9F04F10
:10366C009BB0044605920A460A93C2F30A559DF88C
:10367C0090300B93D20FC1F313030992090D85B946
:10368C0050EA03021CD1059A30235371099B9571A2
:10369C0043F0020313711560012738461BB0BDE8D7
:1036AC00F08F40F2FF7295424AD10343099B059A71
:1036BC0014BF43F0080343F0040313710027ECE735
:1036CC0000F0010208924FEA83080122AB4D48EA50
:1036DC00907887009A461646C5F1000B584606921C
:1036EC0000F01CFBB5F1FF3FACBF8146A0F1010916
:1036FC00ABEB090B09EB05035846049300F014FBE4
:10370C0016A9A0F17D05584600F012FA12AB069AE4
:10371C000193A9EB050510AB0292009320462B46B2
:10372C0016AA514601F04FF8B9F1010F04460D46A7
:10373C0000F2D280089B002B40F0C58001276BE083
:10374C0043F4801A00F001024FEA8A080343A5F201
:10375C003545089248EA90784FEA800749D140F203
:10376C00FE7319420CBF01260026002D3246B3DB36
:10377C00284600F0CDFA032DC8BF0138049000F0A4
:10378C00D3FA049B7C305D1B054416A9184600F047
:10379C0043FA12AB019310AB009320462B460296D2
:1037AC0016AA514601F00FF8049B152B04460D4642
:1037BC0000F2868014AB724A009338464FF0CC333B
:1037CC00414601F0BBF8149B159A9B0843EA82739F
:1037DC0003EB8303BB42DDE9109A0CD1384641461A
:1037EC0000F08EF9049B83428CBF00270127002632
:1037FC0012E00126B9E7089B002B51D1013F48F19B
:10380C00FF31B81B61F1000100F07AF9049B089FAD
:10381C0083428CBF002601260B9B002B40F090802E
:10382C00DDF828B04FF00008CDE906884FF00A0A01
:10383C00DDE91001FFF7FEFE129B0E93CDE90C01A2
:10384C0018461399FFF7F6FE0C9B0D9A0F919842B0
:10385C000B469341814680F08D8020462946FFF728
:10386C00E9FE0E9A0AFB09F3934214BF002606F0F8
:10387C0001060C9B10930D9BCDE911390F9B1393F3
:10388C00079BB8F1000F14BF002707F001070133A5
:10389C000AFB10485FFA88F8079304460D46C7E701
:1038AC00B81C48F1000100F02BF9049B83428CBF3B
:1038BC0000200120B9EB00006AF10002CDE91002F2
:1038CC0000273E46A8E7109B119A013B42F1FF32BC
:1038DC00CDE9103201278AE7B9F13E0FF0D84FF04D
:1038EC00FF33A9F1200003FA09F203FA00F0C9F141
:1038FC00200123FA01F102430A4303FA09F327EAF0
:10390C00030728EA020857EA08070CBF012700271B
:10391C006DE700FB02FCA1FB0012013362448C42F8
:10392C0075EB020CF5D2049ADDF828B01344259AF5
:10393C001344012BB8BF01239B45A8BF9B4671E7DD
:10394C000A21002201230846E9E70AFB03F0A2FB47
:10395C000A2301310344944275EB0300F5D2594517
:10396C0010DDBBF1000F02D154EA05030AD001238C
:10397C00069372E70A2200230121ECE7CCFBFFFF40
:10398C00CDCCCCCC002E2FD04FF00A0A129B139921
:10399C000D931846FFF74EFE0D9B0C910AFB00F29F
:1039AC009A42814620D1DDE91001FFF743FE0E90CB
:1039BC000D9120462946FFF73DFE0D9B0E9A109265
:1039CC00CDE911390C9B1393079BB8F1000F14BF71
:1039DC00002707F0010701330AFB10485FFA88F84B
:1039EC00079304460D46D1E7DDF81090079B9944E8
:1039FC00002F5DD0B8F1050F5AD114F001034DD151
:103A0C00069A32B9DDE912239D4208BF944262D076
:103A1C00069B18194FF00A0445F1000100220126FB
:103A2C002546A04271EB020758D2E3B1B3451ADA2E
:103A3C000B9B63B1259ADDF828B006EB0903134400
:103A4C0023EAE3739B45A8BF9B465E450BDD05301F
:103A5C004FF00A024FF0000341F10001FCF730FC7B
:103A6C0009F10109013E5E45A8BF5E4637B20FFA67
:103A7C0089F9059B09FA86F607F10508013E984479
:103A8C004FF00009B94530DB059B3B4400225A71CD
:103A9C00059B1A461E60099B1371FEE5069B2BB90C
:103AAC00DDE912239D4208BF944209D00123B0E7FF
:103ABC00069B53B9DDE912239D4208BF944204D101
:103ACC00089B002BF2D1002EF0D0B8F1040F94BF5C
:103ADC00002301239DE74FF00408F1E705FB02F7F3
:103AEC00A4FB054201363A449BE70A220023FCF76B
:103AFC00E7FB303208F8012D09F10109C2E700BFDC
:103B0C000A4A70B503464FF0CC3600204FF03335DF
:103B1C0006FB03F402FB0144A3FB023121449D424A
:103B2C0075EB010401D30130F2E770BDCDCCCCCCE8
:103B3C002DE9F04F1A23354EB0FBF3FA03FB1A03B1
:103B4C0089B004460D4606EB0A1653B9D6E9002394
:103B5C00C1E90023D6E90201C5E9020109B0BDE8BB
:103B6C00F08F2B4A02EBC303D3E9008904AB00931B
:103B7C00D6E902234046494600F0E0FE06AB00932E
:103B8C00D6E9002383460F464046494600F0D6FE50
:103B9C00DDE9066216EB0B0652EB07084FF000034B
:103BAC0028BF0123814633B1049B059A013342F1AE
:103BBC000002CDE904322046039100F0B5F8074627
:103BCC001A2000FB0AF000F0AFF83F1A32464346C9
:103BDC0003990097484600F0CCFE4FEA141C0D4A9E
:103BEC00640004F01E0352F82C40DC4004F0030483
:103BFC00241841F10001C5E90041DDE904230097D7
:103C0C003046414600F0B5FEA6E700BFD85100088B
:103C1C0008510008305600082DE9F04F1A27DFF83C
:103C2C00E4A000F11905B5FBF7F56F433A1A4FEA1A
:103C3C00051B89B004460E460AEB05150AD1D5E9D9
:103C4C000023C1E90023D5E90201C6E9020109B04C
:103C5C00BDE8F08F2C4B03EBC203D3E9008904AB16
:103C6C000093D5E902234046494600F067FE5AF816
:103C7C000B206B68013ACDE9020106A963F1000340
:103C8C0000914046494600F059FEDDE906528A464D
:103C9C0002996D18039952EB01084FF0000328BFED
:103CAC000123814633B1049B059A013342F1000292
:103CBC00CDE90432384600F037F80746204600F0CC
:103CCC0033F83F1A2A46434600974846514600F0BF
:103CDC0050FE4FEA141C0D4A640004F01E0352F807
:103CEC002C40DC4004F003040134241841F10001A1
:103CFC00C6E90041DDE9042300972846414600F05F
:103D0C0038FEA2E7A85200080851000884560008A3
:103D1C00014B5843800C704741340100014B584310
:103D2C00000D7047FB2E0B00024B5843C00C0130AA
:103D3C00704700BF4F9312007047836800EBC101BE
:103D4C00B3F5004F2CBF51F8220031F81200704728
:103D5C0000EBC1018068B0F5004F2CBF41F8223058
:103D6C0021F812307047012208B5FFF7E6FFD0406A
:103D7C0008BD836800EBC101B3F5004F08D34B6855
:103D8C001AB143F001034B60704723F00103FAE7CB
:103D9C004B881AB143F001034B80704723F00103A9
:103DAC00FAE753000122FFF7D3BFB0F5004F01F142
:103DBC00010034BF042308230833A0EBD300B0FA6E
:103DCC0080F0C0F11F0070472DE9F04186680D4668
:103DDC000446FFF7C8FFB6F5004F014601D3012892
:103DEC0032D03046FFF7E1FF04EB80010E6996B943
:103DFC000122E3688240204613430222E3602B46F3
:103E0C000D612946FFF7A4FF032229462046BDE891
:103E1C00F041FFF79DBF022231462046FFF78DFF90
:103E2C002946034607462046FFF792FF03223346F6
:103E3C0029462046FFF78CFF39462B462046FFF7D4
:103E4C0087FF02223146E1E7BDE8F081B2F5802F11
:103E5C002CBF08230423D21A2DE9F0418C18CD1D58
:103E6C00002625F0070524F00704641B0560EE60AE
:103E7C00E40821462046AC60FFF797FF421D013055
:103E8C0031464FEA820205F1100002F10707A2F158
:103E9C001002B8BF3246FF0800F098FD31463A4692
:103EAC002846FFF77EFFA4EB07083346324631461F
:103EBC002846FFF74DFF284631460122FFF759FFF0
:103ECC0042463946FFF76DFF3B4632463946284697
:103EDC00FFF73EFF21462846FFF763FF4346324675
:103EEC0021462846FFF734FF214628460122FFF7DA
:103EFC0040FF3946BDE8F041FFF766BF0020704730
:103F0C000FB407B504A951F8040B0191FCF786FB1B
:103F1C0003B05DF804EB04B07047704708B5FDF7CB
:103F2C0073FE002008BD012801D1EFF30583FDF7D6
:103F3C003FBF01460068FFF7F6BF00210120FFF7E5
:103F4C00F2BF61B662B680F31188BFF36F8F704712
:103F5C0072B6002383F31188BFF36F8FBFF34F8FBB
:103F6C0030BF62B6BFF36F8F7047202809D9B0F10C
:103F7C00004F08D80138B0FA80F0C0F11F004000A3
:103F8C007047082070473E20704708B5FCF7E4FFE7
:103F9C00002008BD08B5062201210020FDF72AF8F3
:103FAC00002206201146FCF7D5FD01210722084608
:103FBC00FDF720F8002207201146FCF7CBFD082264
:103FCC0001210220FDF716F8002208201146FCF70B
:103FDC00C1FD092201210320FDF70CF80022092064
:103FEC001146FCF7B7FD0A2201210420FDF702F867
:103FFC0000220A201146FCF7ADFD052117220846C8
:10400C00FCF7F8FF002217201146FCF7A3FD28222D
:10401C0006210A20FCF7EEFF002228201146FCF7AF
:10402C0099FD002008BD1F2809DC4FF0B04101228A
:10403C00D1F88030824023EA0203C1F88030704707
:10404C0003292ED8DFE801F0020F16224FF0B043FF
:10405C0001221968824021EA02011960596821EA9B
:10406C0002025A60704701224FF0B0438240196837
:10407C001143F2E74FF0B0430122596882401143DB
:10408C005960196821EA02021A607047012303FA89
:10409C0000F04FF0B0431A6802431A605A6810439C
:1040AC00586070470B6882B0A3F1D402202A12D852
:1040BC0003F1B043486803F511331A68024300203A
:1040CC001A600B6803F1B04303F511331B680193BD
:1040DC00019B02B070476FF08500FAE70B68A3F103
:1040EC00D402202A0AD803F1B0434968002003F512
:1040FC0011331A6822EA01021A6070476FF08500CA
:10410C00704710B50B685A1E042A02D9083B022BC3
:10411C001FD84A68D3B2C2F34234C2F3042203F16B
:10412C00B04304FA02F203F51133186820EA0202D4
:10413C001A604968CBB2C1F30242C1F3042103F106
:10414C00B0438A4003F511331868024300201A600B
:10415C0010BD6FF08500FBE7436800205B681B69AE
:10416C000B60704743685B68586942400A404240A4
:10417C0000205A617047436800205B689961704762
:10418C004368090400205B6899617047436800200C
:10419C005A6853694B405361704710B5036998686E
:1041AC00F8B1884219D1DC680868A142986000D146
:1041BC00D860002008602AB19A680A60DA689960B1
:1041CC0002B9D960002010E0814206D10868206055
:1041DC00D8688142EDD1DC60EBE70446006800282A
:1041EC00F2D1002AE8D16FF0150010BD2DE9F04195
:1041FC0044680120C2F38016C2F3C11C6768884072
:10420C008E4002F0300527EA0007C2F34122202D30
:10421C0046EA070600FA01F7666007EB470ED4F88A
:10422C00088007FB0CFC07FB02F26FEA0E0628EA7B
:10423C000E084CEA080CC4F808C0D4F80CC02CEAE0
:10424C000E0C42EA0C02E2600CD1072912DC07FAD0
:10425C0001F2206A8A40C2EB02115A4320EA0101A2
:10426C000A43226223682D091E407D433543256095
:10427C00BDE8F081020A616A52435243C2EB02105C
:10428C005A4321EA00010A436262EBE738B504465F
:10429C0090030D46134617D591070ED55A072ED508
:1042AC005022D8060BD542F4007219031AD5616856
:1042BC0001234968AB408B610DE01022F1E79906B0
:1042CC00F3D542F48062F0E7DA0313D5D80613D4A1
:1042DC00C3F340139A02606800232946FFF786FF58
:1042EC00002038BD5B03F6D501212046A940FFF71D
:1042FC0047FFF0E73022EEE74FF40072EBE76FF088
:10430C008500EEE70B4670B5896821B101255E6822
:10431C000C68854001B970BD8A682A4002D04B6890
:10432C00304698471CB1236821461C46F2E72346C9
:10433C00FAE7F8B51F46044640680E461546FFF7E7
:10434C0055FF112F07D101212B0501FA06F104D5D8
:10435C0063685B6899610020F8BD2046FFF710FF89
:10436C00F9E730B5036813600579046804EBC504FC
:10437C00A34202D36FF0010030BD5C798C4201D0B6
:10438C000833F0E70020F7E74368C1F34B1001F066
:10439C001F011B68C05801238B4003424FF00000E3
:1043AC0014BF012300231370704710B54368C1F389
:1043BC004B1001F01F011A68012384588B402343D2
:1043CC008350002010BD10B54368C1F34B1401227B
:1043DC0001F01F0118688A40235823EA0203235076
:1043EC00002010BD38B504460D46FFF7DEFF294608
:1043FC002046FFF7E8FF002038BDB0F5805F07D0FE
:10440C00B0F1805F09D1002914BF01200220704750
:10441C00002914BF032004207047002914BF022078
:10442C000320704743681B68D869DA69C0F3C00081
:10443C00D107DA6948BF40F002009207DA6948BF39
:10444C0040F004005107DA6948BF40F02000D20563
:10445C0004D54FF4807240F008001A62C10701D5F0
:10446C0008221A62820701D501221A62410701D57E
:10447C0002221A62820601D504221A62704737B5ED
:10448C0002690C46436810681D68D9688368DB684C
:10449C007BB101AA984700280BDB2B6823F400435F
:1044AC002B6001992CB101EB5401B1FBF4F189B2F1
:1044BC00E96003B030BD10B5436810201B68DA69A1
:1044CC001206FCD5EFF3118280F31288BFF36F8FC5
:1044DC00DC69240604D482F31188BFF36F8FEEE7F6
:1044EC00996282F31188BFF36F8F10BD43681B680C
:1044FC00DA69100701D508221A62DA69920603D527
:10450C005B6A00200B7070474FF0FF30704710B59E
:10451C00026904460B46526812680A6042681268C7
:10452C00126802F4C062B2F5806F33D0A2F5C0609D
:10453C00424242411A7162681268526802F4405257
:10454C00B2F5805F28D0B2F5405F27D0002A0CBFAF
:10455C00012203225A71626812681068116800F017
:10456C00102001F4C061FFF748FF987162680020C9
:10457C001268926802F44072A2F540714A424A41B4
:10458C00DA7161680968896811F4804F18BF0322D9
:10459C00DA7110BD0222CDE70022DBE70222D9E757
:1045AC00704740B1C368587810F001001EBF1878EE
:1045BC00B0FA80F040097047EFF31183102383F3B6
:1045CC001288BFF36F8FFEE708B5FFF7F5FF10B544
:1045DC00D0E9003433B90020E268537843F001038A
:1045EC00537010BD204698470028F4D00028E3688B
:1045FC00B8BF4042FF28A8BFFF201870ECE700F0BE
:10460C00E5B900F0D5B97047102408B5EFF3118364
:10461C0084F31288BFF36F8FFFF79AFCF6E7FDF770
:10462C007FBED0E9003213605A600023C0E900332A
:10463C00704708B5FFF7F5FF437B23F00203437384
:10464C000023836008BD10B5EFF31184102383F3AE
:10465C001288BFF36F8FFDF775FD84F31188BFF3DC
:10466C006F8F10BD10B50446183000F05BF8EFF3F7
:10467C001181102383F31288BFF36F8F627B1A4072
:10468C0004D081F31188BFF36F8F10BD2046BDE8B5
:10469C001040FDF78BBD38B50446EFF311851023A0
:1046AC0083F31288BFF36F8F437B13F0280F0BD16A
:1046BC0083680BB1FFF7BDFF637B51B903F0FB03BC
:1046CC0020466373FDF73EFD85F31188BFF36F8FB2
:1046DC0038BD03F0EB03F3E701211838FFF7DBBF1C
:1046EC00EFF31181102282F31288BFF36F8F027BDC
:1046FC00D2070CD581F31188BFF36F8F002383F39E
:10470C001188BFF36F8F0423184602DF7047437B79
:10471C001B0704D581F31188BFF36F8F70470122FB
:10472C00FDF744BD10B5EFF31184102282F312880B
:10473C00BFF36F8F03683BB1FDF7BAFF002084F322
:10474C001188BFF36F8F10BD6FF01500F7E708B538
:10475C00FEF7CEF808BD10B5024601448A42134656
:10476C0003D01C780132002CF8D1181A10BD2DE999
:10477C00F0471D46AB0548BF25F400750746884633
:10478C0016464CBF4FF0070A4FF0270A4FEAE5795F
:10479C00384641462A464B46FBF792FDD4B2092CCB
:1047AC0088BF54443A46434688BFE4B2AA4204F157
:1047BC00300473EB090306F8014B07468846E7D231
:1047CC003046BDE8F0872DE9F04F87B006189946C2
:1047DC0002AB41EB0104009315463046D2E90023AD
:1047EC002146DDF844B000F0A9F804AB0093D5E9FC
:1047FC000223074688463046214600F09FF8DDE943
:10480C000263841951EB0306049BD5E900014FF0B8
:10481C00000228BF0122D218059B43F1000338186F
:10482C0048EB0101B84271EB0801D5E902C134BF74
:10483C000120002014EB0C0C46EB010110EB0C00DA
:10484C0041F10001A04271EB060C34BF4FF0010C9A
:10485C004FF0000CCDE90423A9F1410A1CEB020234
:10486C0043F10003CDF800A000F083F8109BC3E9DE
:10487C000001129B012BDDE9042329D1D5E90201AA
:10488C00D5E900C5201A66EB0101674578EB0505F3
:10489C0034BF01250025401B61F10001844276EBF9
:1048AC00010534BF01250025521BCDF800A063F192
:1048BC00000300F05EF8DDE90423CBE90001CDF83C
:1048CC0000A02046314600F054F807B0BDE8F08F48
:1048DC0017EB070E48EB080C201946EB0601BE45FA
:1048EC007CEB080834BF01270027C71941F10008E9
:1048FC00D5E9000186457CEB010CD5E9021534BFE6
:10490C0001200020381A68F1000C401A6CEB0501EC
:10491C0092185B41A74278EB060534BF01250025B0
:10492C00521943F10003874278EB010834BF01258B
:10493C000025521BA9F140050095B8E7F0B50F46CC
:10494C000446A0FB0201A7FB02524919A3FB044534
:10495C0042F10002A7FB0373611845F10004D21960
:10496C00059E43F10003121943F10003C6E900232D
:10497C00F0BDF0B5059CC4F14007C4F1200602FA65
:10498C0006F6A4F12005BB4022FA05F53343C4F129
:10499C0020062B4301FA06F6A4F12005E04021FA8B
:1049AC0005F53043BA402843E14010431943F0BDAC
:1049BC000A44914200F1FF3300D1704710B511F851
:1049CC00014B03F8014F9142F9D110BD024403464B
:1049DC00934200D1704703F8011BF9E701480068C6
:0849EC007047000038020024AE
:0849F4000CB9FF7F0100000077
:1049FC008D0600080000000099110008A44A000868
:104A0C00293F00080000000000000000B84A000820
:104A1C00F9130008804B0008F9130008944B0008A8
:104A2C00F9130008584B0008A13F0008CC4A0008B5
:104A3C00F91300086C4B0008F9130008A84B000888
:104A4C00F9130008444B0008F9130008304B000818
:104A5C00F91300081C4B0008F9130008084B000858
:104A6C00F9130008F44A0008F9130008E04A00089A
:104A7C00F9160008D04B0008F9160008BC4B0008CA
:104A8C00A913000800000000511A000800000000E3
:084A9C008D0F0008000000006E
:104AA4005F57000800000000FC5300086600002463
:104AB4000000000006580008585500085C5500081E
:104AC4007E000024000000004157000800000000A0
:104AD4000000000064000024580200246C57000801
:104AE40018540008F454000868000024D802002474
:104AF4007A5700082C540008F45400086A00002473
:104B0400E80200248857000840540008F4540008C0
:104B14006C000024F802002496570008545400083E
:104B2400F45400086E00002408030024A45700086D
:104B340068540008F454000870000024180300248A
:104B4400B25700087C540008F45400087200002492
:104B540028030024C057000890540008F4540008A7
:104B64007400002438030024CE570008A45400081D
:104B7400F45400087600002448030024DC5700089D
:104B8400B8540008F45400087800002458030024A2
:104B9400EA570008CC540008F45400087A000024B2
:104BA40068030024F8570008E0540008F45400088F
:104BB4007C00002478030024175800086C55000872
:104BC4000456000880000024180000242758000818
:104BD400B855000804560008820000242800002468
:104BE40000000000473F000800000000473F0008A5
:104BF40000000000473F000800000000473F000895
:104C040000000000473F000800000000473F000884
:104C14003F570008B10F00083D570008B10F0008C6
:104C24003B570008B10F000839570008B10F0008BE
:104C340037570008B10F000800000000473F000884
:104C440000000000473F000800000000473F000844
:104C540000000000473F000800000000473F000834
:104C640000000000473F000800000000473F000824
:104C740000000000473F000800000000473F000814
:104C840000000000473F000800000000473F000804
:104C940000000000473F000835570008B10F000826
:104CA40000000000473F000800000000473F0008E4
:104CB40000000000473F000800000000473F0008D4
:104CC40000000000473F000800000000473F0008C4
:104CD40000000000473F000800000000473F0008B4
:104CE40000000000473F000800000000473F0008A4
:104CF40000000000473F000800000000473F000894
:104D040000000000473F000800000000473F000883
:104D140000000000473F000800000000473F000873
:104D240033570008B10F000800000000473F000897
:104D340000000000473F000800000000473F000853
:104D440000000000473F000800000000473F000843
:104D540000000000473F000800000000473F000833
:104D640000000000473F000800000000473F000823
:104D740000000000473F000800000000473F000813
:104D840000000000473F000800000000473F000803
:104D940000000000473F000800000000473F0008F3
:104DA40000000000473F000800000000473F0008E3
:104DB40000000000473F000800000000473F0008D3
:104DC40000000000473F000800000000473F0008C3
:104DD40000000000473F000800000000473F0008B3
:104DE40000000000473F000800000000473F0008A3
:104DF40000000000473F000800000000473F000893
:104E040000000000473F000800000000473F000882
:104E140000000000473F000800000000473F000872
:104E240000000000473F000800000000473F000862
:104E340000000000473F000800000000473F000852
:104E440000000000473F000800000000473F000842
:104E540000000000473F000800000000473F000832
:104E640000000000473F000800000000473F000822
:104E740000000000473F000800000000473F000812
:104E840000000000473F000800000000473F000802
:104E940000000000473F000800000000473F0008F2
:104EA40000000000473F000800000000473F0008E2
:104EB40000000000473F000800000000473F0008D2
:104EC40000000000473F000800000000473F0008C2
:104ED40000000000473F000800000000473F0008B2
:104EE40000000000473F000800000000473F0008A2
:104EF40000000000473F000800000000473F000892
:104F040000000000473F000800000000473F000881
:104F140000000000473F000800000000473F000871
:104F240000000000473F000800000000473F000861
:104F340000000000473F000800000000473F000851
:104F440000000000473F000800000000473F000841
:104F540000000000473F000800000000473F000831
:104F640000000000473F000800000000473F000821
:104F740000000000473F000800000000473F000811
:104F840000000000473F000800000000473F000801
:104F940000000000473F000800000000473F0008F1
:104FA40000000000473F000800000000473F0008E1
:104FB40000000000473F000800000000473F0008D1
:104FC40000000000473F000800000000473F0008C1
:104FD40000000000473F000800000000473F0008B1
:104FE40000000000473F000800000000473F0008A1
:104FF40000000000473F000800000000473F000891
:1050040000000000473F000800000000473F000880
:1050140000000000473F000800000000473F000870
:1050240000000000473F000800000000473F000860
:1050340000000000473F000800000000473F000850
:1050440000000000473F000800000000473F000840
:1050540000000000473F000800000000473F000830
:1050640000000000473F000800000000473F000820
:1050740000000000473F000800000000473F000810
:1050840000000000473F000800000000473F000800
:1050940000000000473F000800000000473F0008F0
:1050A40000000000473F000800000000473F0008E0
:1050B40000000000473F000800000000473F0008D0
:1050C40000000000473F000800000000473F0008C0
:1050D40000000000473F000800000000473F0008B0
:1050E40000000000473F000800000000473F0008A0
:0850F40000000000473F000826
:0450FC00FFFFFFFFB4
:10510000F4000000020000000100000000000000A8
:105110000500000000000000190000000000000071
:105120007D0000000000000071020000000000008F
:10513000350C000000000000093D000000000000E8
:105140002D31010000000000E1F505000000000025
:1051500065CD1D0000000000F90295000000000070
:10516000DD0EE90200000000514A8D0E0000000033
:105170009573C24800000000E941CC6B01000000BB
:105180008D49FD1A07000000C16FF2862300000060
:10519000C52EBCA2B1000000D9E9AC2D78030000F7
:1051A0003D9160E45811000031D6E275BC56000014
:1051B000F52E6E4DAEB10100C9EA2683677808006E
:1051C000ED95C28F055A2A00A1EDCCCE1BC2D300AB
:1051D00025A4000A8BCA2204000000000000000081
:1051E00000000000000000100000000000000000AF
:1051F000B9340332B7F4AD1410DB1AB30892540E6D
:105200000D307D951447BA1A66088F4D26ADC66DD0
:10521000F598BF85E2B74511CA96853D92BD1DEB55
:10522000FCA11860DCEF52163C92AE220BB8C1B460
:10523000839D2D5B0562DA1C304C7E8F4E8BB25BFA
:1052400016F4529F8B56A512FBD4827643ED8AF05A
:105250008FE7F9311565191850F19BD94A13EEB44F
:10526000284CF0A686C1251F035FC270CB9E49164D
:10527000E642889C44EB2014B0650836AD6EA585E7
:1052800085F0CA14E2FD031A0B899979D5B13D095D
:10529000D8DA973A35EBCF10AC363F5E73BB38CFD8
:1052A0003E6752FA44AFBA1501000000000000004A
:1052B0000000000000000020345065C05FC9A65205
:1052C000BB13CBAEC440C21806C8DF7100D5A87CA2
:1052D000F56F0FDA58FC27136E4756357D2420658D
:1052E00002C7E768E48CA41DE9E60268D7CD3961FE
:1052F0007977FCC2405BEF16798CDE43FFA751F94A
:1053000091F3B278F5BDBE11E857E9D6E8BEE87B67
:10531000B054AC8F848D751BEA23A499E9F9D38B23
:10532000B7A3714061DA3E15CEE33ECB73F948086E
:105330008C97B427D51B7010A2BFEFB9EB8532153F
:105340004DB44DB49BBB6F1996B6076CF8E7EEAD44
:1053500036D9B4F59135AE13222218AF4E6A684D96
:1053600091DAAA3D4F40741E9FBD9EE006A1C098F1
:1053700057C2A7FDA40E90170E7D497173E3208FCD
:10538000B220D87605143B12853D7434811343B0A6
:10539000AD297A5F27F4351C05000000A0530008F2
:1053A00000000008F4560008260002070000002450
:1053B000FA56000824000B110000F01FFF560008E9
:1053C0002400041100400030065700081A0008119C
:1053D00000400030145700080E0004012357000855
:1053E00000000090000000100000000200000024F7
:1053F0000000000000000B0608000024B140000877
:10540000E940000800000000D5100008000000007E
:10541000000000000F410008FFFF000000280258B4
:105420000A000000E000000000040000FFFF000090
:105430000024025809000000E00000000002000003
:10544000FFFF00000020025808000000E0000000FC
:1054500000010000FFFF0000001C025807000000D0
:10546000E000000080000000FFFF0000001802586C
:1054700006000000E000000040000000FFFF000008
:105480000014025805000000E000000020000000A9
:10549000FFFF00000010025804000000E0000000C0
:1054A00010000000FFFF0000000C02580300000085
:1054B000E000000008000000FFFF000000080258A4
:1054C00002000000E000000004000000FFFF0000F8
:1054D0000004025801000000E0000000020000008B
:1054E000FFFF00000000025800000000E000000084
:1054F0000100000099420008654100087141000860
:10550000834100088D4100089941000829140008D2
:10551000A741000800000000A84B0008944B0008B9
:10552000804B00086C4B0008584B0008444B0008A7
:10553000304B00081C4B0008084B0008F44A0008D8
:10554000E04A000800000000000000000000000029
:1055500000000000000000000044025895430008CD
:10556000B7430008D3430008F14300080048004057
:10557000B84A00081212000090550008010000000F
:105580000000000000000000000000009855000826
:10559000E800000000000400A05500080100000021
:1055A000A8550008020000000707000000020000E4
:1055B000270700000000000000440040B84A00082F
:1055C00011120000DC55000801000000000000007E
:1055D0000000000000000000E4550008E8000000A2
:1055E00000000200EC55000801000000F45500081E
:1055F00002000000A706000000020000C70600002D
:1056000000000000F9440008C344000831440008C9
:105610007D1800081B450008FC490008FC490008EB
:10562000944A00089C4A0008A44A0008A44A0008BA
:10563000000000000000000000000000000000006A
:105640000000004095596959555554551555555602
:1056500004051541105455404551554440455044AA
:1056600050555545004000404004449665555655F8
:10567000454045545141154055915555555540515A
:10568000050100005445545445550504001004100C
:105690001404400000000140555515415404000019
:1056A00044000100000000404100004450444550C7
:1056B000540055555455655100400040010000010B
:1056C00000050100115451515455550500000000CA
:1056D00000000000000000000010000000304F4EED
:1056E000004F4646004C45442073746174653A206F
:1056F00025730A00464C415348005352414D005314
:10570000595354454D005352414D325F4554485F03
:10571000425546005352414D325F4554485F44451F
:105720005343006D656D6F727940393030303030E1
:105730003030000A060505040103010201010100E1
:1057400001696E746572727570742D636F6E747218
:105750006F6C6C65724035383030303030300072EC
:105760006363403538303234343030006770696FED
:10577000403538303232383030006770696F40352C
:1057800038303232343030006770696F403538302D
:105790003232303030006770696F40353830323126
:1057A000433030006770696F4035383032313830FF
:1057B00030006770696F4035383032313430300036
:1057C0006770696F40353830323130303000677083
:1057D000696F403538303230433030006770696F60
:1057E000403538303230383030006770696F4035BE
:1057F00038303230343030006770696F40353830BF
:1058000032303030300072657365742D636F6E74A2
:10581000726F6C6C65720073657269616C403430D4
:105820003030343830300073657269616C40343028
:10583000303034343030006D61696E002A2A2A20FD
:10584000426F6F74696E67205A6570687972204F75
:1058500053206275696C642076332E372E302D34D8
:1058600037342D67633030386362616231613035BF
:10587000202A2A2A0A00696E66006E616E00286E70
:08588000756C6C2900000000AA
:10588800093F00080507000800000000973F0008CE
:1058980000000000000000000000000020000024BC
:1058A80000C20100000103000000000030000024D5
:1058B80000C20100000103000090D0033C00002456
:1058C8003C000024FF00FF00FF00FF00FF00FF0076
:1058D800FF00FF00FF00FF00FF00FF00FF00FF00C8
:0458E800FF00FF00BE
:1058EC0000000000000000000000000000000000AC
:1058FC00000000000000000000000000000000009C
:04590C0015E015E0AD
:0400000508000A21C4
:00000001FF
